:100000000C943E000C945B000C945B000C945B0021
:100010000C945B000C945B000C945B000C945B00F4
:100020000C945B000C945B000C945B000C945B00E4
:100030000C945B000C945B000C945B000C945B00D4
:100040000C945B000C945B000C945B000C945B00C4
:100050000C945B000C945B000C945B000C945B00B4
:100060000C945B000C945B000C945B000C945B00A4
:100070000C945B000C945B000C945B0011241FBE7D
:10008000CFEFD8E0DEBFCDBF11E0A0E0B1E0EAEAFB
:10009000F8E002C005900D92AA32B107D9F721E02D
:1000A000AAE2B1E001C01D92A033B207E1F70E94BD
:1000B000EE000C9453040C940000E0ECF0E090810E
:1000C00095FFFDCF8093C60080E090E00895CF9229
:1000D000DF92EF92FF920F931F93CF93DF93CDB7F1
:1000E000DEB768970FB6F894DEBF0FBECDBF87E0CE
:1000F000898386E08A8385E08B8384E08C8383E038
:100100008D8382E08E8381E08F83188680E1EEE02C
:10011000F1E0DE01199601900D928A95E1F780EFEA
:1001200084B98E010F5F1F4FA0E0B0E0CC24C394D0
:10013000D12C7D01F801C601019002C0880F991FE2
:100140000A94E2F78F01809585B98FE39CE90197C6
:10015000F1F700C0000023B130E0C9010D8002C0FA
:10016000959587950A94E2F7BC016170772780FF27
:100170000EC0FE01369681E090E0BC01A90101901D
:1001800002C0559547950A94E2F740FD0FC0EE0C6A
:10019000FF1CEE0CFF1CE1E0F0E0EC0FFD1FEE0E8B
:1001A000FF1EF701E60FF71F808509C00196843016
:1001B000910519F71196A430B10509F0BACF6896E8
:1001C0000FB6F894DEBF0FBECDBFDF91CF911F9168
:1001D0000F91FF90EF90DF90CF90089580E091E035
:1001E00090932D0180932C0188E18093C10086E0DB
:1001F0008093C2001092C5008FEC8093C400E0ECA5
:10020000F0E0808185FFFDCFE6ECF0E086E18083C1
:1002100081E18083C0ECD0E00F2EF6ECCF2ED12C04
:10022000F02D0F2EFCE0AF2EF02D0F2EF1E1BF2EA2
:10023000F02D0F2EFEE1EF2EF1E0FF2EF02D0E94AB
:100240006700082F10E08A3338F4803348F4833293
:1002500031F18A32A1F723C08154843080F71FC066
:10026000888185FFFDCFF601A0828FE097E201979C
:10027000F1F700C00000B082FF92EF920E946E0181
:10028000C8010E948401FFE728E381E0F15020408B
:100290008040E1F700C000000F900F90D0CF888120
:1002A00085FFFDCFF601A0828FE097E20197F1F77D
:1002B00000C00000B082FF92EF920E946E01C80160
:1002C0000E948401FFE728E381E0F1502040804054
:1002D000E1F700C000000F900F90B1CFA0E0B0E0B8
:1002E000E4E7F1E00C942C04AE014B5F5F4FFA01A0
:1002F00061917191AF0180912C0190912D010E942B
:100300008B01E2E00C94480460912C0170912D0166
:100310000E9482030895ABE0B0E0E1E9F1E00C94C3
:100320001C046C017B018A01FC0117821682838107
:1003300081FFCCC1CE0101963C01F6019381F7010A
:1003400093FD859193FF81917F01882309F4BAC1C0
:10035000853239F493FD859193FF81917F01853238
:1003600029F4B60190E00E948203E7CF912C212C62
:10037000312CFFE1F315D8F08B3279F038F480326C
:1003800079F08332A1F4232D20611DC08D3261F0FC
:10039000803369F4232D216016C0832D8260382EAE
:1003A000E32DE4603E2E2AC0F32DF8601DC037FC1B
:1003B0002DC020ED280F2A3040F08E32B9F436FCE3
:1003C00081C1232D2064322E19C036FE06C08AE07A
:1003D000989E200D1124922E11C0EAE02E9E200D31
:1003E0001124222EF32DF0623F2E08C08C3621F40A
:1003F000832D8068382E02C0883641F4F70193FDC2
:10040000859193FF81917F018111B3CF982F9F7DBB
:100410009554933028F40C5F1F4F9FE399830DC0D0
:10042000833631F0833771F0833509F059C021C02C
:10043000F801808189830E5F1F4F88248394912C5B
:10044000530113C02801F2E04F0E511CF801A080A7
:10045000B18036FE03C0692D70E002C06FEF7FEF00
:10046000C5010E9477034C018201F32DFF773F2ED7
:1004700016C0280122E0420E511CF801A080B18074
:1004800036FE03C0692D70E002C06FEF7FEFC5013B
:100490000E946C034C01F32DF0683F2E820133FC67
:1004A0001BC0822D90E088169906B0F4B60180E258
:1004B00090E00E9482032A94F4CFF50137FC8591E5
:1004C00037FE81915F01B60190E00E948203211006
:1004D0002A9421E0821A91088114910471F7E8C0EE
:1004E000843611F0893641F5F80137FE07C0608186
:1004F0007181828193810C5F1F4F08C0608171817F
:10050000072E000C880B990B0E5F1F4FF32DFF7603
:100510003F2E97FF09C090958095709561957F4F0C
:100520008F4F9F4FF0683F2E2AE030E0A3010E94DA
:10053000BE03882E861845C0853731F4232D2F7EC3
:10054000B22E2AE030E025C0932D997FB92E8F3648
:10055000C1F018F4883579F0B5C0803719F08837C4
:1005600021F0B0C0E92FE061BE2EB4FE0DC0FB2D1E
:10057000F460BF2E09C034FE0AC0292F2660B22EB7
:1005800006C028E030E005C020E130E002C020E1F4
:1005900032E0F801B7FE07C06081718182819381EA
:1005A0000C5F1F4F06C06081718180E090E00E5F9C
:1005B0001F4FA3010E94BE03882E8618FB2DFF77D4
:1005C0003F2E36FE0DC0232D2E7FA22E891458F407
:1005D00034FE0BC032FC09C0832D8E7EA82E05C0D0
:1005E000B82CA32C03C0B82C01C0B92CA4FE0FC09A
:1005F000FE01E80DF11D8081803321F49A2D997E52
:10060000A92E09C0A2FE06C0B394B39404C08A2DDB
:10061000867809F0B394A3FC11C0A0FE06C0B21402
:1006200088F4280C922C9B180EC0B21460F4B6010A
:1006300080E290E00E948203B394F7CFB21418F4E2
:100640002B1802C0982C212CA4FE10C0B60180E308
:1006500090E00E948203A2FE17C0A1FC03C088E7BD
:1006600090E002C088E590E0B6010CC08A2D867843
:1006700059F0A1FE02C08BE201C080E2A7FC8DE22E
:10068000B60190E00E948203891438F4B60180E339
:1006900090E00E9482039A94F7CF8A94F301E80DC8
:1006A000F11D8081B60190E00E9482038110F5CF98
:1006B000222009F442CEB60180E290E00E9482033B
:1006C0002A94F6CFF6018681978102C08FEF9FEFC3
:1006D0002B96E2E10C943804FC01059061507040C7
:1006E0000110D8F7809590958E0F9F1F0895FC01FB
:1006F0006150704001900110D8F7809590958E0F51
:100700009F1F08950F931F93CF93DF93FB012381C6
:1007100021FD03C08FEF9FEF2CC022FF16C0468142
:100720005781248135814217530744F4A081B18158
:100730009D012F5F3F4F318320838C93268137812A
:100740002F5F3F4F3783268314C08B01EC01FB01E1
:100750000084F185E02D0995892BE1F6D8011696E4
:100760008D919C911797019617969C938E9316974F
:10077000CE01DF91CF911F910F910895FA01AA2721
:10078000283051F1203181F1E8946F936E7F6E5FD4
:100790007F4F8F4F9F4FAF4FB1E03ED0B4E03CD082
:1007A000670F781F891F9A1FA11D680F791F8A1F65
:1007B000911DA11D6A0F711D811D911DA11D20D0CC
:1007C00009F468943F912AE0269F11243019305D86
:1007D0003193DEF6CF010895462F4770405D419377
:1007E000B3E00FD0C9F7F6CF462F4F70405D4A33C4
:1007F00018F0495D31FD4052419302D0A9F7EACF8C
:10080000B4E0A6959795879577956795BA95C9F7BA
:1008100000976105710508959B01AC010A2E0694AD
:100820005795479537952795BA95C9F7620F731F66
:10083000841F951FA01D08952F923F924F925F92A3
:100840006F927F928F929F92AF92BF92CF92DF92E0
:10085000EF92FF920F931F93CF93DF93CDB7DEB745
:10086000CA1BDB0B0FB6F894DEBF0FBECDBF0994D9
:100870002A88398848885F846E847D848C849B8430
:10088000AA84B984C884DF80EE80FD800C811B813E
:10089000AA81B981CE0FD11D0FB6F894DEBF0FBE6D
:0A08A000CDBFED010895F894FFCFDD
:1008AA0000000003000000005D000000000031327B
:1008BA00334134353642373839432A302344546871
:0A08CA006520232069733A0D000039
:00000001FF
